:030000000200B942
:0C00B900787FE4F6D8FD75814A02010052
:10036400C0F9A4B0999282F880908883C6A1868E41
:0C000600014400014100014900014A00D2
:030003000202F006
:1002F000C0E0C0F0C083C082C0D075D000C000C0D4
:1003000001C002C003C004C005C006C007C2AF05DB
:1003100044120145D2AFD007D006D005D004D00397
:10032000D002D001D000D0D0D082D083D0F0D0E0A5
:01033000329A
:030013000201C126
:0D01C100C0E0C083C082C0D075D000C00770
:1001CE00C2AF90FE03E030E04290FE10E0F523A3B4
:1001DE00E0F524A3E0F525A3E0F526A3E0F527A39B
:1001EE00E0F528A3E0F529A3E0F52AA3E0F52BA37B
:1001FE00E0F52CA3E0F52DA3E0F52EA3E0F52F906E
:10020E00FE017404F090FE0BE0A3E090FE04740176
:0C021E00F0852841852949852A4AD2AF85
:0B022A00D007D0D0D082D083D0E032CB
:10034C00C2A37F0A7E00120335D2A3C2A0D2AAD2C6
:08035C008AD288D2A8D2AF2298
:0B03740012034C12029C12001680FBCA
:10029C0090FE007409F0E0F52030E0F490FE1F743D
:1002AC0088F090FE067403F0A3741CF090FE0474A6
:1002BC0001F090FE0874AAF090FE017404F090FE18
:1002CC00107401F0A304F0A304F0A304F0A374FFD2
:1002DC00F0A3F0A3F0A3F090FE007408F0E0F5207A
:0302EC0020E0F41B
:0102EF0022EC
:100145007530887531017532027533037534048550
:100155004435753622753733753844753955753AD2
:1001650066753B77753C8890FE02E0FF20E4F890C9
:10017500FE02E0FF30E3F890FE02E0FF30E2F89087
:10018500FE10E530F0A3E531F0A3E532F0A3E53349
:10019500F0A3E534F0A3E535F0A3E536F0A3E537A4
:1001A500F0A3E538F0A3E539F0A3E53AF0A3E53B84
:0B01B500F0A3E53CF090FE017401F0A7
:0101C000221C
:040331007F057E00C6
:09033500D3EF9400EE9400400D9A
:06033E007508F4D508FD6E
:08034400EF1F70ED1E80EA229C
:1000160043A0F0AF4A7E007C027D711202350C7D52
:10002600E81202478E218F22E54975F00A84AFF067
:100036007547008F48E54975F06484E5F075F00A68
:1000460084754500F546E54975F06484754200F50A
:1000560043E5224521600385223DE5484547600387
:1000660085483EE5464545600385463FE5434542AE
:100076006003854340E53D90036493F58053A07F7C
:1000860012033143A0F0E53E93547FF58053A0BFA1
:1000960012033143A0F0E53F93F58053A0DF12032E
:1000A6003143A0F0E54093F58053A0EF12033143AE
:0300B600A0F02295
:1000C500020374E493A3F8E493A34003F68001F2DA
:1000D50008DFF48029E493A3F85407240CC8C3333C
:1000E500C4540F4420C8834004F456800146F6DF0B
:1000F500E4800B0102040810204080900006E47E95
:10010500019360BCA3FF543F30E509541FFEE493FF
:10011500A360010ECF54C025E060A840B8E493A3C6
:10012500FAE493A3F8E493A3C8C582C8CAC583CAF1
:10013500F0A3C8C582C8CAC583CADFE9DEE780BEA9
:0100120000ED
:10023500EF8DF0A4A8F0CF8CF0A428CE8DF0A42EDD
:02024500FE2297
:10024700BC000BBE0029EF8DF084FFADF022E4CC9B
:10025700F875F008EF2FFFEE33FEEC33FCEE9DEC64
:10026700984005FCEE9DFE0FD5F0E9E4CEFD22EDAA
:10027700F8F5F0EE8420D21CFEADF075F008EF2FF4
:10028700FFED33FD4007985006D5F0F222C398FDE5
:050297000FD5F0EA2282
:00000001FF
