:030000000200A556
:0C00A500787FE4F6D8FD7581430200EC82
:1003B100C0F9A4B0999282F880908883C6A1868EF4
:0C000600014100014000014200014300E4
:0300030002026096
:10026000C0E0C0F0C083C082C0D075D000C000C064
:1002700001C002C003C004C005C006C007C2AF056C
:1002800041120016D2AFD007D006D005D004D0035B
:10029000D002D001D000D0D0D082D083D0F0D0E036
:0102A000322B
:03001300020131B6
:0D013100C0E0C083C082C0D075D000C00700
:10013E00C2AF90FE03E030E04290FE10E0F522A345
:10014E00E0F523A3E0F524A3E0F525A3E0F526A32F
:10015E00E0F527A3E0F528A3E0F529A3E0F52AA30F
:10016E00E0F52BA3E0F52CA3E0F52DA3E0F52E9002
:10017E00FE017404F090FE0BE0A3E090FE04740107
:06018E00F0852740D2AF0E
:0B019400D007D0D0D082D083D0E03262
:10034100C2A37F0A7E0012032AD2A3C2A0D2AAD2DC
:080351008AD288D2A8D2AF22A3
:10038800E508C454F0FFE509C4540F4FF542E509E8
:05039800540FF54322A3
:10039D0012034112020C1203C11200161203D312E2
:0403AD00001680F8BE
:10020C0090FE007409F0E0F52030E0F490FE1F74CD
:10021C0088F090FE067403F0A3741CF090FE047436
:10022C0001F090FE0874AAF090FE017404F090FEA8
:10023C00107401F0A304F0A304F0A304F0A374FF62
:10024C00F0A3F0A3F0A3F090FE007408F0E0F5200A
:03025C0020E0F4AB
:01025F00227C
:10001600E508C454F0FFE509C4540F4FF542E5095D
:10002600540FF543752F887530017531027532030B
:10003600753304854134854235F536753744753850
:1000460055753966753A77753B8890FE02E0FF2054
:10005600E4F890FE02E0FF30E3F890FE02E0FF30A5
:10006600E2F890FE10E52FF0A3E530F0A3E531F0BD
:10007600A3E532F0A3E533F0A3E534F0A3E535F0CC
:10008600A3E536F0A3E537F0A3E538F0A3E539F0AC
:0E009600A3E53AF0A3E53BF090FE017401F003
:0100A4002239
:040326007F057E00D1
:09032A00D3EF9400EE9400400DA5
:06033300750AF4D50AFD75
:08033900EF1F70ED1E80EA22A7
:10019F0043A0F0E54175F00A8485F03CE54175F028
:1001AF006484E5F075F00A84F53DE54075F00A8446
:1001BF0085F03EE54075F06484E5F075F00A84F54E
:1001CF003FE53C9003B193F58053A07F1203264384
:1001DF00A0F0E53D93F58053A0BF12032643A0F096
:1001EF00E53E93F58053A0DF12032643A0F0E53FD1
:0D01FF0093F58053A0EF12032643A0F022D9
:0303D000DFFE222B
:10037100C2B57FB41203D0D2B57F181203D0A2B593
:0703810092087FE60203D0A1
:0802D5001202DD1203717FCC5F
:0202DD00AE076A
:1002DF007D08C2B57F041203D0EE1392B57F1412BE
:0F02EF0003D0D2B5EEC313FEDDE87F320203D099
:1002FE00E4FEFDC2B5D2B57F041203D030B50D7445
:10030E0001A805088002C333D8FC42067F141203ED
:07031E00D00DBD08DEAF06A3
:0103250022B5
:1002A100AC071202D87F4E1202DD7F151202DDE487
:1002B100FF1202DDAF041202D57FBE1202DD12026F
:1002C100FE1202D87F481202DD7F641203D01203AE
:0402D10071D2B5220F
:100359001202D87F441202D57FBE1202DD1202FEBC
:080369008F091202FE8F082229
:0F03C1007F641203D0D2087F7F1202A10203597A
:0303D300020359C9
:1000B10002039DE493A3F8E493A34003F68001F2C5
:1000C10008DFF48029E493A3F85407240CC8C33350
:1000D100C4540F4420C8834004F456800146F6DF1F
:1000E100E4800B0102040810204080900006E47EA9
:1000F100019360BCA3FF543F30E509541FFEE49314
:10010100A360010ECF54C025E060A840B8E493A3DA
:10011100FAE493A3F8E493A3C8C582C8CAC583CA05
:10012100F0A3C8C582C8CAC583CADFE9DEE780BEBD
:0100120000ED
:00000001FF
